:020000040000FA
:10000000AEEC02F006EF00F0D6EF02F01DEC00F0CF
:1000100006EF00F0D8B41200D8900032FF0F0AEFBC
:1000200000F0D8B41200D8900036FF0F11EF00F0A6
:10003000A96EA680A850026E12001150006E1250D8
:10004000005CD8B490EF00F0A4EC02F0406E405099
:10005000A60FD8A430EF00F091EC00F090EF00F084
:10006000180FD8A438EF00F0C2EC00F090EF00F0C9
:10007000F30FD8A440EF00F086EC03F090EF00F00F
:10008000FC0FD8A448EF00F0A4EC00F090EF00F0D3
:10009000010FD8A450EF00F0D1EC00F090EF00F089
:1000A000020FD8A458EF00F0DCEC00F090EF00F065
:1000B000FC0FD8A460EF00F0EFEC00F090EF00F040
:1000C000110FD8A467EF00F0032A90EF00F0FF0FA4
:1000D000D8A46EEF00F0030690EF00F0F80FD8A45C
:1000E00075EF00F0042A90EF00F0FF0FD8A47CEF2A
:1000F00000F0040690EF00F0050FD8A484EF00F0A4
:10010000800E051A90EF00F0F10FD8A490EF00F0E8
:10011000570E99EC02F0245099EC02F090EF00F0A9
:1001200012000350416E0450426E0550436E000EA3
:10013000046E036E056E86EC03F04150036E425070
:10014000046E4350056E12001150006E1250005C98
:10015000D8A4ADEF00F0A4EF00F0A4EC02F0036E21
:100160001150006E1250005CD8A4B9EF00F0B0EF4F
:1001700000F0A4EC02F0046E0350800B056E7F0EBD
:10018000031612001150006E1250005CD8A4CBEF81
:1001900000F0C2EF00F0A4EC02F03F6E60EC05F05E
:1001A0001200520E99EC02F00350052499EC02F073
:1001B000045099EC02F01200800EE8EC03F0500EAF
:1001C00099EC02F0205099EC02F0215099EC02F0E9
:1001D000225099EC02F0235099EC02F012000350E7
:1001E000810FD8A4FDEF00F00450010FD8A4FDEF5B
:1001F00000F0000E046E056E036EF00E366E3A6E61
:100200003E6E000E266E256E35EC01F03B50376ECB
:100210003C50386E3D50396E3E50F50FD8A4D8A0F2
:1002200014EF01F0DFEC01F03B50036E3C50046E24
:100230003D50056E86EC03F03E50246E2450F70FBF
:10024000D8A4D8A02EEF01F02450F30FD8A4D8A042
:100250002CEF01F02EEF01F078EC05F0540E99EC44
:1002600002F0245099EC02F0120003503B6E04504F
:100270003C6E05503D6E86EC03F05DEC04F0ADEC99
:1002800001F02650FC0FD8B04EEF01F03E50F50FB4
:10029000D8A4D8A04EEF01F04FEF01F01200000EED
:1002A000336E036E376E3B6E000E346E046E386E26
:1002B0003C6E000E356E056E396E3D6E86EC03F0B9
:1002C0005DEC04F024503A6EADEC01F02650FC0FCA
:1002D000D8B073EF01F03E50F50FD8A4D8A073EF5B
:1002E00001F074EF01F01200010E066E0650800F4F
:1002F000D8B0ACEF01F0010E076E0750800FD8B0F8
:100300008DEF01F0056AC5EC01F0800E056EC5ECBD
:1003100001F0D89007367DEF01F03A50E90FD8A4EC
:10032000D8A095EF01F097EF01F0DFEC01F0265037
:10033000FC0FD8B0A4EF01F03E50F60FD8A4D8A01F
:10034000A4EF01F0A6EF01F0ACEF01F0F00E3A6E71
:10035000D890063676EF01F012002450006E3E5021
:10036000005CD8B0C4EF01F004503C6E03503B6E0B
:100370000350D8A4C0EF01F0000E0009C1EF01F056
:1003800005503D6E24503E6E12000650036E07501D
:10039000046E86EC03F05DEC04F02450006E3A50DD
:1003A000005CD8B0DEEF01F00450386E0350376EB9
:1003B0000550396E24503A6EADEC01F01200385001
:1003C000046E346E3750036E336E3950056E3750FD
:1003D000006E010E00090AEC00F00050306E38503B
:1003E000006E010E00090AEC00F00050316E315031
:1003F000006E3050005CD8A4D8A002EF02F031505B
:1004000003EF02F03050446E3050D8A40AEF02F0EF
:10041000010E306E3150D8A410EF02F0010E316E93
:100420004450D8A416EF02F0010E446E86EC03F09F
:100430005DEC04F02450366EADEC01F03E50F60F4A
:10044000D8A4D8A026EF02F027EF02F01200445003
:10045000D8B481EF02F0326A315004260450800F84
:10046000D8B035EF02F082EC02F03450046E305018
:10047000035E0350800FD8B040EF02F082EC02F030
:100480003350036E3150045E0450800FD8B04BEFF0
:1004900002F082EC02F03450046E30500326035018
:1004A000800FD8B056EF02F082EC02F03350036EAA
:1004B0003250D8A470EF02F0D89044324450006E0D
:1004C0003050005CD8B067EF02F04450306E4450BA
:1004D000006E3150005CD8B070EF02F04450316EC5
:1004E0002650FC0FD8B07DEF02F03E50F60FD8A496
:1004F000D8A07DEF02F07FEF02F081EF02F027EF4E
:1005000002F0120086EC03F05DEC04F02450006E63
:100510003650005CD8B098EF02F00350336E0450B0
:10052000346E0550356E322A2450366EADEC01F033
:1005300012000001456E1B501B2A130FE96E455037
:10054000EF6E070E1B1612001250122A090FE96EE9
:10055000EF50466E070E121646501200720ED36E02
:10056000EA6A946A030E926E0D0EC16E800E8A6E58
:10057000470E936E000E1C6E1B6E126E116E000EF7
:10058000046E036E056E000E1E6E1D6E0A0E3F6E2B
:10059000CC6A8B0ECB6E020E9D6E050ECA6EE0EC21
:1005A00003F086EC03F0000EA66E1200E9504A6ECE
:1005B0001F50D8B4DDEF02F01F06482A4850FE0F46
:1005C000D8A4D8A0E5EF02F0486A1D50000FD8A4C7
:1005D000F6EF02F08150400BD8A4F4EF02F0000EC9
:1005E000486E476E496E1D2A20EF03F0FF0FD8A416
:1005F00011EF03F04850FF0FD8A40FEF03F0D8908D
:1006000047328150400BD8B408EF03F0800E4712F8
:10061000492A4950F70FD8A40FEF03F01D2A20EF05
:1006200003F0FF0FD8A420EF03F01150112A090F97
:10063000E96E4750EF6E070E11161D6A20EF03F0AA
:100640004C2A4C50FE0FD8A4D8A028EF03F04C6AD7
:100650001E50000FD8A444EF03F01B50016E1C5035
:10066000015CD8B442EF03F01C501C2A130FE96E52
:10067000EF504B6E070E1C16000E4D6E4C6E800E2A
:100680008A1A1E2A81EF03F0FF0FD8A469EF03F046
:100690004C50D8A467EF03F04B50010BD8B455EF82
:1006A00003F0800E000957EF03F0000E00094E6EB4
:1006B0008A504E1A800E4E164E508A1AD8904B32DF
:1006C0004D2A4D50F80FD8A467EF03F01E2A81EF92
:1006D00003F0FF0FD8A476EF03F04C50D8A474EFCA
:1006E00003F0800E8A121E2A81EF03F0FF0FD8A4B8
:1006F00081EF03F04C50D8A47FEF03F01E6A81EF26
:1007000003F04A50E96E9E92110010000350810FD1
:10071000D8A491EF03F00450010FD8A491EF03F097
:10072000120003B08B8E03A08B9E03B28B8603A2B4
:100730008B9603B48B8C03A48B9C03B68B8403A68B
:100740008B9403B88B8A03A88B9A03BA8B8203AA73
:100750008B9203BC8B8803AC8B9805BE8B8005AE57
:100760008B9004B08A8604A08A9604B2898404A27D
:10077000899404B48A8804A48A9804B6898604A655
:10078000899604B88A8A04A88A9A04BA898A04AA2B
:10079000899A04BC898804AC89980A0ED1EC03F0CC
:1007A000120000014F6ED8904F36D8904F364F5000
:1007B0001F6E1F50D8B4DFEF03F0D9EF03F0120023
:1007C000F28EF28C1200F29EF2BEE4EF03F0120001
:1007D0000001506E00015050250FC06E050EC26E14
:1007E000000E516E5150FB0FD8B0FAEF03F0512AB2
:1007F000F2EF03F0C282C250020BD8B402EF04F051
:10080000FBEF03F0C450286EC350276E000E516EEC
:100810005150FB0FD8B010EF04F0512A08EF04F04C
:10082000C282C250020BD8B418EF04F011EF04F0EA
:10083000C4502A6EC350296EC9EC04F0010EDAECE4
:1008400004F02850206E2750216E010EC26E000E5B
:10085000516E5150FB0FD8B031EF04F0512A29EFFF
:1008600004F0C282C250020BD8B439EF04F032EF68
:1008700004F0C450286EC350276E000E516E5150C4
:10088000FB0FD8B047EF04F0512A3FEF04F0C282CB
:10089000C250020BD8B44FEF04F048EF04F0C4503C
:1008A0002A6EC350296EC9EC04F0010EDAEC04F094
:1008B0002850226E2750236E1200526A5250FB0FAE
:1008C000D8B088EF04F0252A2550D8A469EF04F0A9
:1008D000262A800EE8EC03F02050D8A474EF04F030
:1008E0002150526E76EF04F0630E526E5250FB0FA1
:1008F000D8B07EEF04F00A0ED1EC03F02650FC0FC6
:10090000D8A086EF04F0FD0E246E12005EEF04F016
:100910002050286E2150276E22502A6E2350296EB7
:10092000C9EC04F00A0E2AEC05F028502F6E27506F
:100930002E6E2050286E2150276E22502A6E235092
:10094000296EEAEC04F00009D8B4AAEF04F0FA0E1C
:10095000246E120028502A6E2750296E2A50D8A4DF
:10096000B9EF04F02950D8A4B9EF04F0FB0E246EBF
:100970001200FBEC04F02F50D8B4C2EF04F0FC0ED0
:10098000246E12002E50246E1200000E286E276E68
:10099000120000012B6A2C6A29502726D8B02C2A75
:1009A0002C502826D8B02B2A2A502826D8B02B2AFB
:1009B0002B5012000001536E0001535053060009E2
:1009C000D8B4E9EF04F00001D89028322732DCEFE8
:1009D00004F0120000012B6A2C6A2950275ED8A06F
:1009E0002C2A2C50285ED8A02B2A2A50285ED8A06A
:1009F0002B2A2B501200C5EC04F0000E2D6E2D504A
:100A0000F00FD8B018EF05F0D8902E362F362736D5
:100A10002836EAEC04F00009D8B413EF05F0C9EC6D
:100A200004F015EF05F0010E2E122D2AFFEF04F051
:100A300012000001546E27502E6E28502F6E000EAB
:100A40002A6E5450296EFBEC04F02E50276E2F5066
:100A5000286E12000001556E566A000155502D6E29
:100A600028502A6E2750296EC5EC04F02D50D8B4BA
:100A700049EF05F02D50010BD8B442EF05F0C9EC59
:100A800004F05612D8902D32D89029362A3636EFF7
:100A900005F056501200A96E0250A86EA69EA684BC
:100AA000F29E550EA76EAA0EA76EA6820000000049
:100AB000F28E00000000A6B25BEF05F0A6941200D3
:100AC0003F50576E5750000F18EC00F00250586E10
:100AD0005850800B056E58507F0B036E572A5750A5
:100AE000000F18EC00F00250046ED1EC00F0120080
:100AF0003F50596E5950000F18EC00F002505A6EDA
:100B0000035005245B6E5A50006E5B50005CD8B4F5
:100B100090EF05F05B50026E5950596E4BEC05F0AA
:100B2000592A5950000F18EC00F002505A6E5A50D2
:100B3000006E0450005CD8B4A4EF05F00450026EBF
:0A0B40005950596E4BEC05F01200FD
:020000040030CA
:03000100C80E1E08
:020005008181F7
:060008000FC00FE00F40E5
:0200000400F00A
:10000000FFFFFFFFFFFFFFFFFFFFFFFFFFFFFFFF00
:040010000338033876
:00000001FF
